:10000000EF020E0AF0020A0AFE0C2F00900C3000DC
:1000100061000008FE0C2F0061000108610001086A
:10002000FE0C2F00900C3000010C31006100000824
:10003000E2010108020804080808E2010F080F089D
:100040000F080F08070807080B0803080D08050824
:100050000908010806080A080C080808000818081A
:100060001C081A0816081108190815081D08130895
:100070001B08170817081F081F081F081F081F085C
:100080001F081F08170817081B0813081D08150864
:100090001908110816081A081C081808100808087A
:1000A0000C080A0806080108090805080D080308D5
:1000B0000B08070807080F080F080F08E2010F08D0
:1000C0000F080F080F08070807080B0803080D089A
:1000D00005080908010806080A080C08080810089D
:1000E00018081C081A0816081108190815081D0810
:1000F00013081B08170817081F081F081F081F08E8
:100100001F081F081F08170817081B0813081D08D9
:1001100015081908110816081A081C0818080008FC
:1001200008080C080A0806080108090805080D084F
:1001300003080B08070807080F080F080F086500D9
:1001400066006700FF0C0500E00C0600E00C0700ED
:1001500068006C003F0C2D00300C2E0029000400BC
:10016000030C02001009FD0C32007300B3020502FB
:100170000C0E2A002A032A03070C6A010A02180936
:100180002B002506010B0102C107C10AE107C10AC4
:1001900000093100D102CD0AC10A1009F203EA0AAE
:1001A000F200F302C10AB4020507E00A200C2300A2
:1001B0000802000926000902000927006300C10A9D
:1001C000200C2300080241092600090241092700EA
:1001D0006300C10AB4020507F70A400C23000802B5
:1001E000000926000902000927006300C10A400C2B
:1001F0002300080241092600090241092700630083
:10020000C10A0507110B0B02C8013F0E2800CE01E1
:100210003F0E290008021D09260009021D092700BA
:100220001F0B4B02E80188023F0E2800CE013F0E53
:10023000290008025E09260009025E092700FE0C5B
:100240002F00900C3000010C31006100FD0C3200D9
:100250007300B302C10AFF0FFF0FFF0FFF0FFF0F65
:10026000FF0FFF0FFF0FFF0FFF0FFF0FFF0FFF0F1E
:10027000FF0FFF0FFF0FFF0FFF0FFF0FFF0FFF0F0E
:10028000FF0FFF0FFF0FFF0FFF0FFF0FFF0FFF0FFE
:10029000FF0FFF0FFF0FFF0FFF0FFF0FFF0FFF0FEE
:1002A000FF0FFF0FFF0FFF0FFF0FFF0FFF0FFF0FDE
:1002B000FF0FFF0FFF0FFF0FFF0FFF0FFF0FFF0FCE
:1002C000FF0FFF0FFF0FFF0FFF0FFF0FFF0FFF0FBE
:1002D000FF0FFF0FFF0FFF0FFF0FFF0FFF0FFF0FAE
:1002E000FF0FFF0FFF0FFF0FFF0FFF0FFF0FFF0F9E
:1002F000FF0FFF0FFF0FFF0FFF0FFF0FFF0FFF0F8E
:10030000FF0FFF0FFF0FFF0FFF0FFF0FFF0FFF0F7D
:10031000FF0FFF0FFF0FFF0FFF0FFF0FFF0FFF0F6D
:10032000FF0FFF0FFF0FFF0FFF0FFF0FFF0FFF0F5D
:10033000FF0FFF0FFF0FFF0FFF0FFF0FFF0FFF0F4D
:10034000FF0FFF0FFF0FFF0FFF0FFF0FFF0FFF0F3D
:10035000FF0FFF0FFF0FFF0FFF0FFF0FFF0FFF0F2D
:10036000FF0FFF0FFF0FFF0FFF0FFF0FFF0FFF0F1D
:10037000FF0FFF0FFF0FFF0FFF0FFF0FFF0FFF0F0D
:10038000FF0FFF0FFF0FFF0FFF0FFF0FFF0FFF0FFD
:10039000FF0FFF0FFF0FFF0FFF0FFF0FFF0FFF0FED
:1003A000FF0FFF0FFF0FFF0FFF0FFF0FFF0FFF0FDD
:1003B000FF0FFF0FFF0FFF0FFF0FFF0FFF0FFF0FCD
:1003C000FF0FFF0FFF0FFF0FFF0FFF0FFF0FFF0FBD
:1003D000FF0FFF0FFF0FFF0FFF0FFF0FFF0FFF0FAD
:1003E000FF0FFF0FFF0FFF0FFF0FFF0FFF0FFF0F9D
:1003F000FF0FFF0FFF0FFF0FFF0FFF0FFF0FFF0F8D
:10040000E201060806080608060806080A080A089F
:100410000A08020802080C080C0804080408080866
:100420000808000818081808140814081C081C08F4
:10043000120812081A081A081A08160816081608C8
:100440001608160816081608160816081A081A08B4
:100450001A08120812081C081C08140814081808A6
:100460001808100808080808040804080C080C08F4
:10047000020802080A080A080A0806080608060808
:100480000608E201060806080608060806080A0823
:100490000A080A08020802080C080C0804080408E4
:1004A00008080808100818081808140814081C0878
:1004B0001C08120812081A081A081A081608160842
:1004C00016081608160816081608160816081A0838
:1004D0001A081A08120812081C081C081408140824
:1004E00018081808000808080808040804080C0878
:1004F0000C08020802080A080A080A080608060882
:1005000006080608FF0FFF0FFF0FFF0FFF0FFF0F7B
:10051000FF0FFF0FFF0FFF0FFF0FFF0FFF0FFF0F6B
:10052000FF0FFF0FFF0FFF0FFF0FFF0FFF0FFF0F5B
:10053000FF0FFF0FFF0FFF0FFF0FFF0FFF0FFF0F4B
:10054000FF0FFF0FFF0FFF0FFF0FFF0FFF0FFF0F3B
:10080000E2010D080D080D080D0805080508090886
:10081000090801080E0806080A0802080C0804085E
:1008200008080008180814081C0812081A081608F6
:100830001E08110819081908150815081D081D08B3
:100840001D081D081D081D081D0815081508190894
:10085000190811081E0816081A0812081C0814089E
:1008600018081008080804080C0802080A080608F6
:100870000E08010809080908050805080D080D08F3
:100880000D08E2010D080D080D080D080508050802
:100890000908090801080E0806080A0802080C08D9
:1008A000040808081008180814081C0812081A0878
:1008B00016081E08110819081908150815081D083A
:1008C0001D081D081D081D081D081D081508150810
:1008D0001908190811081E0816081A0812081C0819
:1008E000140818080008080804080C0802080A0878
:1008F00006080E08010809080908050805080D087A
:100900000D080D08FF0FFF0FFF0FFF0FFF0FFF0F69
:10091000FF0FFF0FFF0FFF0FFF0FFF0FFF0FFF0F67
:10092000FF0FFF0FFF0FFF0FFF0FFF0FFF0FFF0F57
:10093000FF0FFF0FFF0FFF0FFF0FFF0FFF0FFF0F47
:10094000FF0FFF0FFF0FFF0FFF0FFF0FFF0FFF0F37
:100FF000FF0FFF0FFF0FFF0FFF0FFF0FFF0F9F0AE6
:08100000FF0FFF0FFF0FFF0FB0
:021FFE00FA0FD8
:00000001FF
